{
  "contractName": "DigiBlock",
  "abi": [
    {
      "inputs": [],
      "stateMutability": "nonpayable",
      "type": "constructor"
    },
    {
      "anonymous": false,
      "inputs": [
        {
          "indexed": true,
          "internalType": "address",
          "name": "_from",
          "type": "address"
        },
        {
          "indexed": false,
          "internalType": "address",
          "name": "_to",
          "type": "address"
        },
        {
          "indexed": false,
          "internalType": "string",
          "name": "_docType",
          "type": "string"
        },
        {
          "indexed": false,
          "internalType": "uint256",
          "name": "_status",
          "type": "uint256"
        },
        {
          "indexed": false,
          "internalType": "uint256",
          "name": "_timestamp",
          "type": "uint256"
        }
      ],
      "name": "DocumentStatusChange",
      "type": "event"
    },
    {
      "inputs": [],
      "name": "owner",
      "outputs": [
        {
          "internalType": "address",
          "name": "",
          "type": "address"
        }
      ],
      "stateMutability": "view",
      "type": "function",
      "constant": true
    },
    {
      "inputs": [
        {
          "internalType": "string",
          "name": "_firstName",
          "type": "string"
        },
        {
          "internalType": "string",
          "name": "_lastName",
          "type": "string"
        },
        {
          "internalType": "string",
          "name": "_email",
          "type": "string"
        },
        {
          "internalType": "address",
          "name": "_userAddress",
          "type": "address"
        },
        {
          "internalType": "string",
          "name": "_masterKey",
          "type": "string"
        }
      ],
      "name": "addAdmin",
      "outputs": [],
      "stateMutability": "nonpayable",
      "type": "function"
    },
    {
      "inputs": [
        {
          "internalType": "address",
          "name": "_userAddress",
          "type": "address"
        }
      ],
      "name": "deleteAdmin",
      "outputs": [],
      "stateMutability": "nonpayable",
      "type": "function"
    },
    {
      "inputs": [],
      "name": "allAdmins",
      "outputs": [
        {
          "internalType": "string[]",
          "name": "",
          "type": "string[]"
        },
        {
          "internalType": "string[]",
          "name": "",
          "type": "string[]"
        },
        {
          "internalType": "string[]",
          "name": "",
          "type": "string[]"
        },
        {
          "internalType": "address[]",
          "name": "",
          "type": "address[]"
        }
      ],
      "stateMutability": "view",
      "type": "function",
      "constant": true
    },
    {
      "inputs": [
        {
          "internalType": "address",
          "name": "_userAddress",
          "type": "address"
        }
      ],
      "name": "singleAdmin",
      "outputs": [
        {
          "internalType": "string",
          "name": "",
          "type": "string"
        },
        {
          "internalType": "string",
          "name": "",
          "type": "string"
        },
        {
          "internalType": "string",
          "name": "",
          "type": "string"
        },
        {
          "internalType": "string",
          "name": "",
          "type": "string"
        }
      ],
      "stateMutability": "view",
      "type": "function",
      "constant": true
    },
    {
      "inputs": [
        {
          "internalType": "string",
          "name": "_masterKey",
          "type": "string"
        }
      ],
      "name": "updateMasterKey",
      "outputs": [],
      "stateMutability": "nonpayable",
      "type": "function"
    },
    {
      "inputs": [],
      "name": "adminsCount",
      "outputs": [
        {
          "internalType": "uint256",
          "name": "",
          "type": "uint256"
        }
      ],
      "stateMutability": "view",
      "type": "function",
      "constant": true
    },
    {
      "inputs": [
        {
          "internalType": "string",
          "name": "_orgName",
          "type": "string"
        },
        {
          "internalType": "string",
          "name": "_email",
          "type": "string"
        },
        {
          "internalType": "address",
          "name": "_orgAddress",
          "type": "address"
        },
        {
          "internalType": "string",
          "name": "_masterKey",
          "type": "string"
        },
        {
          "internalType": "string[]",
          "name": "_docTypes",
          "type": "string[]"
        }
      ],
      "name": "addIssuer",
      "outputs": [],
      "stateMutability": "nonpayable",
      "type": "function"
    },
    {
      "inputs": [
        {
          "internalType": "address",
          "name": "_orgAddress",
          "type": "address"
        }
      ],
      "name": "singleIssuer",
      "outputs": [
        {
          "internalType": "string",
          "name": "",
          "type": "string"
        },
        {
          "internalType": "string",
          "name": "",
          "type": "string"
        },
        {
          "internalType": "string",
          "name": "",
          "type": "string"
        },
        {
          "internalType": "string[]",
          "name": "",
          "type": "string[]"
        }
      ],
      "stateMutability": "view",
      "type": "function",
      "constant": true
    },
    {
      "inputs": [],
      "name": "issuersCount",
      "outputs": [
        {
          "internalType": "uint256",
          "name": "",
          "type": "uint256"
        }
      ],
      "stateMutability": "view",
      "type": "function",
      "constant": true
    },
    {
      "inputs": [
        {
          "internalType": "string",
          "name": "_firstName",
          "type": "string"
        },
        {
          "internalType": "string",
          "name": "_lastName",
          "type": "string"
        },
        {
          "internalType": "string",
          "name": "_email",
          "type": "string"
        },
        {
          "internalType": "address",
          "name": "_userAddress",
          "type": "address"
        }
      ],
      "name": "addUser",
      "outputs": [],
      "stateMutability": "nonpayable",
      "type": "function"
    },
    {
      "inputs": [
        {
          "internalType": "address",
          "name": "_userAddress",
          "type": "address"
        }
      ],
      "name": "singleUser",
      "outputs": [
        {
          "internalType": "string",
          "name": "",
          "type": "string"
        },
        {
          "internalType": "string",
          "name": "",
          "type": "string"
        },
        {
          "internalType": "string",
          "name": "",
          "type": "string"
        }
      ],
      "stateMutability": "view",
      "type": "function",
      "constant": true
    },
    {
      "inputs": [],
      "name": "usersCount",
      "outputs": [
        {
          "internalType": "uint256",
          "name": "",
          "type": "uint256"
        }
      ],
      "stateMutability": "view",
      "type": "function",
      "constant": true
    },
    {
      "inputs": [
        {
          "internalType": "address",
          "name": "_to",
          "type": "address"
        },
        {
          "internalType": "string",
          "name": "_ipfsHash",
          "type": "string"
        },
        {
          "internalType": "string",
          "name": "_docType",
          "type": "string"
        }
      ],
      "name": "issueDocument",
      "outputs": [],
      "stateMutability": "nonpayable",
      "type": "function"
    },
    {
      "inputs": [
        {
          "internalType": "address",
          "name": "_orgAddress",
          "type": "address"
        }
      ],
      "name": "getDocsIssuedByIssuer",
      "outputs": [
        {
          "internalType": "address[]",
          "name": "",
          "type": "address[]"
        },
        {
          "internalType": "string[]",
          "name": "",
          "type": "string[]"
        },
        {
          "internalType": "string[]",
          "name": "",
          "type": "string[]"
        },
        {
          "internalType": "uint256[]",
          "name": "",
          "type": "uint256[]"
        }
      ],
      "stateMutability": "view",
      "type": "function",
      "constant": true
    },
    {
      "inputs": [
        {
          "internalType": "address",
          "name": "_userAddress",
          "type": "address"
        }
      ],
      "name": "isUserVerified",
      "outputs": [
        {
          "internalType": "bool",
          "name": "",
          "type": "bool"
        }
      ],
      "stateMutability": "view",
      "type": "function",
      "constant": true
    },
    {
      "inputs": [
        {
          "internalType": "address",
          "name": "_userAddress",
          "type": "address"
        }
      ],
      "name": "getAllDocuments",
      "outputs": [
        {
          "internalType": "address[]",
          "name": "",
          "type": "address[]"
        },
        {
          "internalType": "string[]",
          "name": "",
          "type": "string[]"
        },
        {
          "internalType": "string[]",
          "name": "",
          "type": "string[]"
        },
        {
          "internalType": "uint256[]",
          "name": "",
          "type": "uint256[]"
        }
      ],
      "stateMutability": "view",
      "type": "function",
      "constant": true
    },
    {
      "inputs": [
        {
          "internalType": "string",
          "name": "_orgName",
          "type": "string"
        },
        {
          "internalType": "string",
          "name": "_email",
          "type": "string"
        },
        {
          "internalType": "address",
          "name": "_orgAddress",
          "type": "address"
        }
      ],
      "name": "addRequestor",
      "outputs": [],
      "stateMutability": "nonpayable",
      "type": "function"
    },
    {
      "inputs": [
        {
          "internalType": "address",
          "name": "_orgAddress",
          "type": "address"
        }
      ],
      "name": "singleRequestor",
      "outputs": [
        {
          "internalType": "string",
          "name": "",
          "type": "string"
        },
        {
          "internalType": "string",
          "name": "",
          "type": "string"
        }
      ],
      "stateMutability": "view",
      "type": "function",
      "constant": true
    },
    {
      "inputs": [],
      "name": "requestorsCount",
      "outputs": [
        {
          "internalType": "uint256",
          "name": "",
          "type": "uint256"
        }
      ],
      "stateMutability": "view",
      "type": "function",
      "constant": true
    },
    {
      "inputs": [
        {
          "internalType": "address",
          "name": "_userAddress",
          "type": "address"
        },
        {
          "internalType": "string",
          "name": "_docType",
          "type": "string"
        }
      ],
      "name": "requestDocumentFromUser",
      "outputs": [],
      "stateMutability": "nonpayable",
      "type": "function"
    },
    {
      "inputs": [
        {
          "internalType": "address",
          "name": "_userAddress",
          "type": "address"
        }
      ],
      "name": "getUserPendingDocuments",
      "outputs": [
        {
          "internalType": "address[]",
          "name": "",
          "type": "address[]"
        },
        {
          "internalType": "string[]",
          "name": "",
          "type": "string[]"
        },
        {
          "internalType": "uint256[]",
          "name": "",
          "type": "uint256[]"
        }
      ],
      "stateMutability": "view",
      "type": "function",
      "constant": true
    },
    {
      "inputs": [
        {
          "internalType": "address",
          "name": "_userAddress",
          "type": "address"
        }
      ],
      "name": "getUserAcceptedDocuments",
      "outputs": [
        {
          "internalType": "address[]",
          "name": "",
          "type": "address[]"
        },
        {
          "internalType": "string[]",
          "name": "",
          "type": "string[]"
        },
        {
          "internalType": "uint256[]",
          "name": "",
          "type": "uint256[]"
        }
      ],
      "stateMutability": "view",
      "type": "function",
      "constant": true
    },
    {
      "inputs": [
        {
          "internalType": "address",
          "name": "_userAddress",
          "type": "address"
        }
      ],
      "name": "getUserRejectedDocuments",
      "outputs": [
        {
          "internalType": "address[]",
          "name": "",
          "type": "address[]"
        },
        {
          "internalType": "string[]",
          "name": "",
          "type": "string[]"
        },
        {
          "internalType": "uint256[]",
          "name": "",
          "type": "uint256[]"
        }
      ],
      "stateMutability": "view",
      "type": "function",
      "constant": true
    },
    {
      "inputs": [
        {
          "internalType": "address",
          "name": "_userAddress",
          "type": "address"
        }
      ],
      "name": "getUserRevokedDocuments",
      "outputs": [
        {
          "internalType": "address[]",
          "name": "",
          "type": "address[]"
        },
        {
          "internalType": "string[]",
          "name": "",
          "type": "string[]"
        },
        {
          "internalType": "uint256[]",
          "name": "",
          "type": "uint256[]"
        }
      ],
      "stateMutability": "view",
      "type": "function",
      "constant": true
    },
    {
      "inputs": [
        {
          "internalType": "address",
          "name": "_orgAddress",
          "type": "address"
        }
      ],
      "name": "getRequestorPendingDocuments",
      "outputs": [
        {
          "internalType": "address[]",
          "name": "",
          "type": "address[]"
        },
        {
          "internalType": "string[]",
          "name": "",
          "type": "string[]"
        },
        {
          "internalType": "uint256[]",
          "name": "",
          "type": "uint256[]"
        }
      ],
      "stateMutability": "view",
      "type": "function",
      "constant": true
    },
    {
      "inputs": [
        {
          "internalType": "address",
          "name": "_orgAddress",
          "type": "address"
        }
      ],
      "name": "getRequestorAcceptedDocuments",
      "outputs": [
        {
          "internalType": "address[]",
          "name": "",
          "type": "address[]"
        },
        {
          "internalType": "string[]",
          "name": "",
          "type": "string[]"
        },
        {
          "internalType": "string[]",
          "name": "",
          "type": "string[]"
        },
        {
          "internalType": "uint256[]",
          "name": "",
          "type": "uint256[]"
        }
      ],
      "stateMutability": "view",
      "type": "function",
      "constant": true
    },
    {
      "inputs": [
        {
          "internalType": "address",
          "name": "_orgAddress",
          "type": "address"
        }
      ],
      "name": "getRequestorRejectedDocuments",
      "outputs": [
        {
          "internalType": "address[]",
          "name": "",
          "type": "address[]"
        },
        {
          "internalType": "string[]",
          "name": "",
          "type": "string[]"
        },
        {
          "internalType": "uint256[]",
          "name": "",
          "type": "uint256[]"
        }
      ],
      "stateMutability": "view",
      "type": "function",
      "constant": true
    },
    {
      "inputs": [
        {
          "internalType": "address",
          "name": "_orgAddress",
          "type": "address"
        }
      ],
      "name": "getRequestorRevokedDocuments",
      "outputs": [
        {
          "internalType": "address[]",
          "name": "",
          "type": "address[]"
        },
        {
          "internalType": "string[]",
          "name": "",
          "type": "string[]"
        },
        {
          "internalType": "uint256[]",
          "name": "",
          "type": "uint256[]"
        }
      ],
      "stateMutability": "view",
      "type": "function",
      "constant": true
    },
    {
      "inputs": [
        {
          "internalType": "address",
          "name": "_from",
          "type": "address"
        },
        {
          "internalType": "address",
          "name": "_to",
          "type": "address"
        },
        {
          "internalType": "string",
          "name": "_docType",
          "type": "string"
        },
        {
          "internalType": "uint256",
          "name": "_timestamp",
          "type": "uint256"
        },
        {
          "internalType": "uint256",
          "name": "_prevStatus",
          "type": "uint256"
        },
        {
          "internalType": "uint256",
          "name": "_nextStatus",
          "type": "uint256"
        }
      ],
      "name": "changeDocumentStatus",
      "outputs": [],
      "stateMutability": "nonpayable",
      "type": "function"
    }
  ],
  "bytecode": "0x60a06040523480156200001157600080fd5b503360808181526040805160e081018252600660a082018181526550696e616b6960d01b60c0840181905290835283518085018552600d81526c426861747461636861726a656560981b6020828101919091528085019190915284518086018652601381527f70696e616b6970623240676d61696c2e636f6d0000000000000000000000000081830152848601526060840187905284518086018652928352828101919091529382015260009384528383529220825180518493620000db928492910190620001a5565b506020828101518051620000f69260018501920190620001a5565b506040820151805162000114916002840191602090910190620001a5565b5060608201516003820180546001600160a01b0319166001600160a01b039092169190911790556080820151805162000158916004840191602090910190620001a5565b5050600980546001810182556000919091527f6e1540171b6c0c960b71a7020d9f60077f6af931a8bbf590da0223dacf75c7af0180546001600160a01b0319163317905550620002889050565b828054620001b3906200024b565b90600052602060002090601f016020900481019282620001d7576000855562000222565b82601f10620001f257805160ff191683800117855562000222565b8280016001018555821562000222579182015b828111156200022257825182559160200191906001019062000205565b506200023092915062000234565b5090565b5b8082111562000230576000815560010162000235565b600181811c908216806200026057607f821691505b602082108114156200028257634e487b7160e01b600052602260045260246000fd5b50919050565b608051615c80620002b2600039600081816103a0015281816119be01526150430152615c806000f3fe608060405234801561001057600080fd5b50600436106101da5760003560e01c806362baff9f116101045780638f9e3096116100a2578063bc858a2b11610071578063bc858a2b14610453578063d482b50d14610466578063db8cf75b14610479578063ebac611d1461048c57600080fd5b80638f9e3096146103da578063ace417e0146103fb578063b2a33bfe1461041e578063b48ff0f11461044057600080fd5b80637790b5bb116100de5780637790b5bb1461035d5780637930946b1461038057806380e9782f146103885780638da5cb5b1461039b57600080fd5b806362baff9f1461032f5780636ba13a8214610342578063710165611461034a57600080fd5b806325d69ad71161017c5780634f89fe601161014b5780634f89fe60146102d357806350c9c38a146102f657806359ded538146103095780635ecbc7741461031c57600080fd5b806325d69ad71461027257806327e1f7df1461029557806340f32be6146102a85780634f66521f146102c057600080fd5b80631793115b116101b85780631793115b146102315780631a33f0fe146102445780631c41e5a1146102575780631f5edc041461025f57600080fd5b80630a8c072a146101df5780630de35f551461020a5780631109c6f91461021f575b600080fd5b6101f26101ed3660046152c7565b61049f565b60405161020193929190615411565b60405180910390f35b61021d61021836600461550b565b610830565b005b600a545b604051908152602001610201565b61021d61023f36600461557f565b610be0565b61021d6102523660046155f3565b610cd4565b600954610223565b6101f261026d3660046152c7565b6112b6565b6102856102803660046152c7565b611639565b6040516102019493929190615641565b61021d6102a33660046152c7565b6119b3565b6102b0611c37565b6040516102019493929190615699565b6101f26102ce3660046152c7565b612023565b6102e66102e13660046152c7565b6123a6565b60405161020194939291906156e6565b6102856103043660046152c7565b6126cc565b6102856103173660046152c7565b612bb7565b61021d61032a366004615733565b612f19565b61021d61033d3660046157ad565b6133e8565b600b54610223565b6101f26103583660046152c7565b613558565b61037061036b3660046152c7565b6138db565b60405161020194939291906157ea565b600c54610223565b6101f26103963660046152c7565b613baa565b6103c27f000000000000000000000000000000000000000000000000000000000000000081565b6040516001600160a01b039091168152602001610201565b6103ed6103e83660046152c7565b613f29565b604051610201929190615837565b61040e6104093660046152c7565b6140dc565b6040519015158152602001610201565b61043161042c3660046152c7565b61410a565b60405161020193929190615865565b61021d61044e36600461589e565b614342565b6101f26104613660046152c7565b61445a565b61021d610474366004615937565b6147dd565b61021d610487366004615a76565b614930565b6101f261049a3660046152c7565b614a82565b6001600160a01b038116600090815260076020526040812054606091829182919067ffffffffffffffff8111156104d8576104d8615454565b604051908082528060200260200182016040528015610501578160200160208202803683370190505b506001600160a01b0386166000908152600760205260408120549192509067ffffffffffffffff81111561053757610537615454565b60405190808252806020026020018201604052801561056a57816020015b60608152602001906001900390816105555790505b506001600160a01b0387166000908152600760205260408120549192509067ffffffffffffffff8111156105a0576105a0615454565b6040519080825280602002602001820160405280156105c9578160200160208202803683370190505b5090506000805b6001600160a01b038916600090815260076020526040902054811015610822576001600160a01b038916600090815260076020526040902080548290811061061a5761061a615b34565b600091825260209091206005909102015460ff16600381111561063f5761063f615b4a565b60ff1660031415610810576001600160a01b038916600090815260076020526040902080548290811061067457610674615b34565b906000526020600020906005020160010160009054906101000a90046001600160a01b03168583815181106106ab576106ab615b34565b6001600160a01b03928316602091820292909201810191909152908a1660009081526007909152604090208054829081106106e8576106e8615b34565b9060005260206000209060050201600301805461070490615b60565b80601f016020809104026020016040519081016040528092919081815260200182805461073090615b60565b801561077d5780601f106107525761010080835404028352916020019161077d565b820191906000526020600020905b81548152906001019060200180831161076057829003601f168201915b505050505084838151811061079457610794615b34565b6020026020010181905250600760008a6001600160a01b03166001600160a01b0316815260200190815260200160002081815481106107d5576107d5615b34565b9060005260206000209060050201600401548383815181106107f9576107f9615b34565b602090810291909101015261080d82615bb1565b91505b8061081a81615bb1565b9150506105d0565b509297919650945092505050565b610838614e01565b6001600160a01b03838116600090815260026020526040902060030154166108965760405162461bcd60e51b815260206004820152600c60248201526b24b73b30b634b2102ab9b2b960a11b60448201526064015b60405180910390fd5b6008826040516108a69190615bcc565b9081526040519081900360200190205460ff16156108f65760405162461bcd60e51b815260206004820152600d60248201526c1058d8d95cdcc811195b9a5959609a1b604482015260640161088d565b60016008836040516109089190615bcc565b9081526040805160209281900383019020805460ff1916931515939093179092556001600160a01b0385166000908152600390915290812054905b81811015610a7a576001600160a01b03851660009081526003602052604090208054610a2b91908390811061097a5761097a615b34565b9060005260206000209060050201600301805461099690615b60565b80601f01602080910402602001604051908101604052809291908181526020018280546109c290615b60565b8015610a0f5780601f106109e457610100808354040283529160200191610a0f565b820191906000526020600020905b8154815290600101906020018083116109f257829003601f168201915b5050505050848051602091820120825192909101919091201490565b15610a685760405162461bcd60e51b815260206004820152600d60248201526c1058d8d95cdcc811195b9a5959609a1b604482015260640161088d565b80610a7281615bb1565b915050610943565b506040805160a0810182523381526001600160a01b0386811660208084018281528486018981526060860189905242608087015260009384526003835295832080546001808201835591855293839020865160059095020180546001600160a01b0319908116958716959095178155915190820180549094169416939093179091559251805192938493610b149260028501920190615162565b5060608201518051610b30916003840191602090910190615162565b50608091909101516004918201553360009081526020918252604080822080546001818101835591845292849020855160059094020180546001600160a01b039485166001600160a01b03199182161782558686015192820180549390951692169190911790925583015180518493610bb0926002850192910190615162565b5060608201518051610bcc916003840191602090910190615162565b506080820151816004015550505050505050565b610be981614e5b565b610bf281614ebe565b610bfb81614f1e565b610c0481614f89565b6040805160608101825284815260208082018590526001600160a01b038416828401819052600090815260058252929092208151805192938493610c4b9284920190615162565b506020828101518051610c649260018501920190615162565b5060409190910151600290910180546001600160a01b039283166001600160a01b031991821617909155600c80546001810182556000919091527fdf6966c971051c3d54ec59162606531493a51404a002842f56009d7e5cf4a8c701805494909216931692909217909155505050565b610cdc614fe9565b6001600160a01b0382811660009081526002602052604090206003015416610d355760405162461bcd60e51b815260206004820152600c60248201526b24b73b30b634b2102ab9b2b960a11b604482015260640161088d565b6001600160a01b038216600090815260036020908152604080832054815160a08101835284815292830184905260609183018290528183019190915260808201839052919060005b8381101561101e576001600160a01b03861660009081526003602052604090208054610e65919083908110610db457610db4615b34565b90600052602060002090600502016003018054610dd090615b60565b80601f0160208091040260200160405190810160405280929190818152602001828054610dfc90615b60565b8015610e495780601f10610e1e57610100808354040283529160200191610e49565b820191906000526020600020905b815481529060010190602001808311610e2c57829003601f168201915b5050505050868051602091820120825192909101919091201490565b1561100c576001600160a01b0386166000908152600360205260409020805482908110610e9457610e94615b34565b60009182526020918290206040805160a081018252600590930290910180546001600160a01b0390811684526001820154169383019390935260028301805492939291840191610ee390615b60565b80601f0160208091040260200160405190810160405280929190818152602001828054610f0f90615b60565b8015610f5c5780601f10610f3157610100808354040283529160200191610f5c565b820191906000526020600020905b815481529060010190602001808311610f3f57829003601f168201915b50505050508152602001600382018054610f7590615b60565b80601f0160208091040260200160405190810160405280929190818152602001828054610fa190615b60565b8015610fee5780601f10610fc357610100808354040283529160200191610fee565b820191906000526020600020905b815481529060010190602001808311610fd157829003601f168201915b5050505050815260200160048201548152505091506001925061101e565b8061101681615bb1565b915050610d7d565b508161106c5760405162461bcd60e51b815260206004820152600d60248201527f446f63206e6f7420466f756e6400000000000000000000000000000000000000604482015260640161088d565b6040805160c0810182526000808252336020808401919091526001600160a01b0389168385018190528585015160608086019190915286015160808501524260a085015282526006815292812080546001808201835591835293909120825160059094020180549293849391929091839160ff19909116908360038111156110f6576110f6615b4a565b0217905550602082810151825474ffffffffffffffffffffffffffffffffffffffff0019166101006001600160a01b039283160217835560408401516001840180546001600160a01b03191691909216179055606083015180516111609260028501920190615162565b506080820151805161117c916003840191602090910190615162565b5060a09190910151600490910155336000908152600760209081526040822080546001818101835591845291909220835160059092020180548493919291839160ff1916908360038111156111d3576111d3615b4a565b0217905550602082810151825474ffffffffffffffffffffffffffffffffffffffff0019166101006001600160a01b039283160217835560408401516001840180546001600160a01b031916919092161790556060830151805161123d9260028501920190615162565b5060808201518051611259916003840191602090910190615162565b5060a082015181600401555050336001600160a01b03167f3b040bd431a9bac5915ce547bf7e5704e328a0ba47a7e28f930fbf157beb513187876000426040516112a69493929190615be8565b60405180910390a2505050505050565b6001600160a01b038116600090815260076020526040812054606091829182919067ffffffffffffffff8111156112ef576112ef615454565b604051908082528060200260200182016040528015611318578160200160208202803683370190505b506001600160a01b0386166000908152600760205260408120549192509067ffffffffffffffff81111561134e5761134e615454565b60405190808252806020026020018201604052801561138157816020015b606081526020019060019003908161136c5790505b506001600160a01b0387166000908152600760205260408120549192509067ffffffffffffffff8111156113b7576113b7615454565b6040519080825280602002602001820160405280156113e0578160200160208202803683370190505b5090506000805b6001600160a01b038916600090815260076020526040902054811015610822576001600160a01b038916600090815260076020526040902080548290811061143157611431615b34565b600091825260209091206005909102015460ff16600381111561145657611456615b4a565b60ff1660021415611627576001600160a01b038916600090815260076020526040902080548290811061148b5761148b615b34565b906000526020600020906005020160010160009054906101000a90046001600160a01b03168583815181106114c2576114c2615b34565b6001600160a01b03928316602091820292909201810191909152908a1660009081526007909152604090208054829081106114ff576114ff615b34565b9060005260206000209060050201600301805461151b90615b60565b80601f016020809104026020016040519081016040528092919081815260200182805461154790615b60565b80156115945780601f1061156957610100808354040283529160200191611594565b820191906000526020600020905b81548152906001019060200180831161157757829003601f168201915b50505050508483815181106115ab576115ab615b34565b6020026020010181905250600760008a6001600160a01b03166001600160a01b0316815260200190815260200160002081815481106115ec576115ec615b34565b90600052602060002090600502016004015483838151811061161057611610615b34565b602090810291909101015261162482615bb1565b91505b8061163181615bb1565b9150506113e7565b6001600160a01b038116600090815260046020526040812054606091829182918291908167ffffffffffffffff81111561167557611675615454565b60405190808252806020026020018201604052801561169e578160200160208202803683370190505b50905060008267ffffffffffffffff8111156116bc576116bc615454565b6040519080825280602002602001820160405280156116ef57816020015b60608152602001906001900390816116da5790505b50905060008367ffffffffffffffff81111561170d5761170d615454565b60405190808252806020026020018201604052801561174057816020015b606081526020019060019003908161172b5790505b50905060008467ffffffffffffffff81111561175e5761175e615454565b604051908082528060200260200182016040528015611787578160200160208202803683370190505b50905060005b858110156119a2576001600160a01b038b1660009081526004602052604081208054839081106117bf576117bf615b34565b906000526020600020906005020190508060010160009054906101000a90046001600160a01b03168683815181106117f9576117f9615b34565b60200260200101906001600160a01b031690816001600160a01b03168152505080600201805461182890615b60565b80601f016020809104026020016040519081016040528092919081815260200182805461185490615b60565b80156118a15780601f10611876576101008083540402835291602001916118a1565b820191906000526020600020905b81548152906001019060200180831161188457829003601f168201915b50505050508583815181106118b8576118b8615b34565b60200260200101819052508060030180546118d290615b60565b80601f01602080910402602001604051908101604052809291908181526020018280546118fe90615b60565b801561194b5780601f106119205761010080835404028352916020019161194b565b820191906000526020600020905b81548152906001019060200180831161192e57829003601f168201915b505050505084838151811061196257611962615b34565b6020026020010181905250806004015483838151811061198457611984615b34565b6020908102919091010152508061199a81615bb1565b91505061178d565b509299919850965090945092505050565b6119bc33615041565b7f00000000000000000000000000000000000000000000000000000000000000006001600160a01b0316816001600160a01b03161415611a2e5760405162461bcd60e51b815260206004820152600d60248201526c1058d8d95cdcc811195b9a5959609a1b604482015260640161088d565b6001600160a01b0381811660009081526020819052604090206003015416611a885760405162461bcd60e51b815260206004820152600d60248201526c24b73b30b634b21020b236b4b760991b604482015260640161088d565b6001600160a01b038116600090815260208190526040812090611aab82826151e6565b611ab96001830160006151e6565b611ac76002830160006151e6565b6003820180546001600160a01b0319169055611ae76004830160006151e6565b505060005b816001600160a01b031660098281548110611b0957611b09615b34565b6000918252602090912001546001600160a01b031614611b355780611b2d81615bb1565b915050611aec565b6009548110611b865760405162461bcd60e51b815260206004820152600660248201527f4661696c65640000000000000000000000000000000000000000000000000000604482015260640161088d565b60098054611b9690600190615c1d565b81548110611ba657611ba6615b34565b600091825260209091200154600980546001600160a01b039092169183908110611bd257611bd2615b34565b9060005260206000200160006101000a8154816001600160a01b0302191690836001600160a01b031602179055506009805480611c1157611c11615c34565b600082815260209020810160001990810180546001600160a01b03191690550190555050565b60095460609081908190819060008167ffffffffffffffff811115611c5e57611c5e615454565b604051908082528060200260200182016040528015611c9157816020015b6060815260200190600190039081611c7c5790505b50905060008267ffffffffffffffff811115611caf57611caf615454565b604051908082528060200260200182016040528015611ce257816020015b6060815260200190600190039081611ccd5790505b50905060008367ffffffffffffffff811115611d0057611d00615454565b604051908082528060200260200182016040528015611d3357816020015b6060815260200190600190039081611d1e5790505b50905060008467ffffffffffffffff811115611d5157611d51615454565b604051908082528060200260200182016040528015611d7a578160200160208202803683370190505b50905060005b8581101561201357600080600060098481548110611da057611da0615b34565b60009182526020808320909101546001600160a01b03168352820192909252604001902080549091508190611dd490615b60565b80601f0160208091040260200160405190810160405280929190818152602001828054611e0090615b60565b8015611e4d5780601f10611e2257610100808354040283529160200191611e4d565b820191906000526020600020905b815481529060010190602001808311611e3057829003601f168201915b5050505050868381518110611e6457611e64615b34565b6020026020010181905250806001018054611e7e90615b60565b80601f0160208091040260200160405190810160405280929190818152602001828054611eaa90615b60565b8015611ef75780601f10611ecc57610100808354040283529160200191611ef7565b820191906000526020600020905b815481529060010190602001808311611eda57829003601f168201915b5050505050858381518110611f0e57611f0e615b34565b6020026020010181905250806002018054611f2890615b60565b80601f0160208091040260200160405190810160405280929190818152602001828054611f5490615b60565b8015611fa15780601f10611f7657610100808354040283529160200191611fa1565b820191906000526020600020905b815481529060010190602001808311611f8457829003601f168201915b5050505050848381518110611fb857611fb8615b34565b6020908102919091010152600381015483516001600160a01b0390911690849084908110611fe857611fe8615b34565b6001600160a01b0390921660209283029190910190910152508061200b81615bb1565b915050611d80565b5092989197509550909350915050565b6001600160a01b038116600090815260066020526040812054606091829182919067ffffffffffffffff81111561205c5761205c615454565b604051908082528060200260200182016040528015612085578160200160208202803683370190505b506001600160a01b0386166000908152600660205260408120549192509067ffffffffffffffff8111156120bb576120bb615454565b6040519080825280602002602001820160405280156120ee57816020015b60608152602001906001900390816120d95790505b506001600160a01b0387166000908152600660205260408120549192509067ffffffffffffffff81111561212457612124615454565b60405190808252806020026020018201604052801561214d578160200160208202803683370190505b5090506000805b6001600160a01b038916600090815260066020526040902054811015610822576001600160a01b038916600090815260066020526040902080548290811061219e5761219e615b34565b600091825260209091206005909102015460ff1660038111156121c3576121c3615b4a565b60ff1660011415612394576001600160a01b03891660009081526006602052604090208054829081106121f8576121f8615b34565b906000526020600020906005020160000160019054906101000a90046001600160a01b031685838151811061222f5761222f615b34565b6001600160a01b03928316602091820292909201810191909152908a16600090815260069091526040902080548290811061226c5761226c615b34565b9060005260206000209060050201600301805461228890615b60565b80601f01602080910402602001604051908101604052809291908181526020018280546122b490615b60565b80156123015780601f106122d657610100808354040283529160200191612301565b820191906000526020600020905b8154815290600101906020018083116122e457829003601f168201915b505050505084838151811061231857612318615b34565b6020026020010181905250600660008a6001600160a01b03166001600160a01b03168152602001908152602001600020818154811061235957612359615b34565b90600052602060002090600502016004015483838151811061237d5761237d615b34565b602090810291909101015261239182615bb1565b91505b8061239e81615bb1565b915050612154565b6001600160a01b03818116600090815260016020526040902060020154606091829182918291166124195760405162461bcd60e51b815260206004820152600e60248201527f496e76616c696420497373756572000000000000000000000000000000000000604482015260640161088d565b6001600160a01b03851660009081526001602052604081208054909190829061244190615b60565b80601f016020809104026020016040519081016040528092919081815260200182805461246d90615b60565b80156124ba5780601f1061248f576101008083540402835291602001916124ba565b820191906000526020600020905b81548152906001019060200180831161249d57829003601f168201915b5050505050905060008260010180546124d290615b60565b80601f01602080910402602001604051908101604052809291908181526020018280546124fe90615b60565b801561254b5780601f106125205761010080835404028352916020019161254b565b820191906000526020600020905b81548152906001019060200180831161252e57829003601f168201915b50505050509050600083600301805461256390615b60565b80601f016020809104026020016040519081016040528092919081815260200182805461258f90615b60565b80156125dc5780601f106125b1576101008083540402835291602001916125dc565b820191906000526020600020905b8154815290600101906020018083116125bf57829003601f168201915b50505050509050600084600401805480602002602001604051908101604052809291908181526020016000905b828210156126b557838290600052602060002001805461262890615b60565b80601f016020809104026020016040519081016040528092919081815260200182805461265490615b60565b80156126a15780601f10612676576101008083540402835291602001916126a1565b820191906000526020600020905b81548152906001019060200180831161268457829003601f168201915b505050505081526020019060010190612609565b50969d959c50939a50909850929650505050505050565b6001600160a01b03811660009081526007602052604081205460609182918291829167ffffffffffffffff81111561270657612706615454565b60405190808252806020026020018201604052801561272f578160200160208202803683370190505b506001600160a01b0387166000908152600760205260408120549192509067ffffffffffffffff81111561276557612765615454565b60405190808252806020026020018201604052801561279857816020015b60608152602001906001900390816127835790505b506001600160a01b0388166000908152600760205260408120549192509067ffffffffffffffff8111156127ce576127ce615454565b60405190808252806020026020018201604052801561280157816020015b60608152602001906001900390816127ec5790505b506001600160a01b0389166000908152600760205260408120549192509067ffffffffffffffff81111561283757612837615454565b604051908082528060200260200182016040528015612860578160200160208202803683370190505b5090506000805b6001600160a01b038b16600090815260076020526040902054811015612ba6576001600160a01b038b1660009081526007602052604090208054829081106128b1576128b1615b34565b600091825260209091206005909102015460ff1660038111156128d6576128d6615b4a565b60ff1660011415612b94576001600160a01b038b16600090815260076020526040902080548290811061290b5761290b615b34565b906000526020600020906005020160010160009054906101000a90046001600160a01b031686838151811061294257612942615b34565b6001600160a01b03928316602091820292909201810191909152908c16600090815260079091526040902080548290811061297f5761297f615b34565b9060005260206000209060050201600301805461299b90615b60565b80601f01602080910402602001604051908101604052809291908181526020018280546129c790615b60565b8015612a145780601f106129e957610100808354040283529160200191612a14565b820191906000526020600020905b8154815290600101906020018083116129f757829003601f168201915b5050505050858381518110612a2b57612a2b615b34565b6020026020010181905250600760008c6001600160a01b03166001600160a01b031681526020019081526020016000208181548110612a6c57612a6c615b34565b90600052602060002090600502016002018054612a8890615b60565b80601f0160208091040260200160405190810160405280929190818152602001828054612ab490615b60565b8015612b015780601f10612ad657610100808354040283529160200191612b01565b820191906000526020600020905b815481529060010190602001808311612ae457829003601f168201915b5050505050848381518110612b1857612b18615b34565b6020026020010181905250600760008c6001600160a01b03166001600160a01b031681526020019081526020016000208181548110612b5957612b59615b34565b906000526020600020906005020160040154838381518110612b7d57612b7d615b34565b6020908102919091010152612b9182615bb1565b91505b80612b9e81615bb1565b915050612867565b509399929850909650945092505050565b6001600160a01b038116600090815260036020526040812054606091829182918291908167ffffffffffffffff811115612bf357612bf3615454565b604051908082528060200260200182016040528015612c1c578160200160208202803683370190505b50905060008267ffffffffffffffff811115612c3a57612c3a615454565b604051908082528060200260200182016040528015612c6d57816020015b6060815260200190600190039081612c585790505b50905060008367ffffffffffffffff811115612c8b57612c8b615454565b604051908082528060200260200182016040528015612cbe57816020015b6060815260200190600190039081612ca95790505b50905060008467ffffffffffffffff811115612cdc57612cdc615454565b604051908082528060200260200182016040528015612d05578160200160208202803683370190505b50905060005b858110156119a2576001600160a01b038b166000908152600360205260408120805483908110612d3d57612d3d615b34565b60009182526020909120600590910201805487519192506001600160a01b031690879084908110612d7057612d70615b34565b60200260200101906001600160a01b031690816001600160a01b031681525050806002018054612d9f90615b60565b80601f0160208091040260200160405190810160405280929190818152602001828054612dcb90615b60565b8015612e185780601f10612ded57610100808354040283529160200191612e18565b820191906000526020600020905b815481529060010190602001808311612dfb57829003601f168201915b5050505050858381518110612e2f57612e2f615b34565b6020026020010181905250806003018054612e4990615b60565b80601f0160208091040260200160405190810160405280929190818152602001828054612e7590615b60565b8015612ec25780601f10612e9757610100808354040283529160200191612ec2565b820191906000526020600020905b815481529060010190602001808311612ea557829003601f168201915b5050505050848381518110612ed957612ed9615b34565b60200260200101819052508060040154838381518110612efb57612efb615b34565b60209081029190910101525080612f1181615bb1565b915050612d0b565b612f216150b2565b6001600160a01b0385811660009081526002602052604090206003015416612f7a5760405162461bcd60e51b815260206004820152600c60248201526b24b73b30b634b2102ab9b2b960a11b604482015260640161088d565b6001600160a01b0386811660009081526005602052604090206002015416612fe45760405162461bcd60e51b815260206004820152601160248201527f496e76616c696420526571756573746f72000000000000000000000000000000604482015260640161088d565b6003821180612ff35750600381115b80612ffd57508082145b1561303a5760405162461bcd60e51b815260206004820152600d60248201526c1058dd1a5bdb8811195b9a5959609a1b604482015260640161088d565b811580156130485750806003145b156130855760405162461bcd60e51b815260206004820152600d60248201526c1058dd1a5bdb8811195b9a5959609a1b604482015260640161088d565b816001148015613096575080600314155b156130d35760405162461bcd60e51b815260206004820152600d60248201526c1058dd1a5bdb8811195b9a5959609a1b604482015260640161088d565b81600214806130e25750816003145b1561311f5760405162461bcd60e51b815260206004820152600d60248201526c1058dd1a5bdb8811195b9a5959609a1b604482015260640161088d565b6001600160a01b038086166000908152600660209081526040808320938a16835260079091528120825490915b8181101561326e57896001600160a01b031684828154811061317057613170615b34565b600091825260209091206005909102015461010090046001600160a01b03161480156131be5750868482815481106131aa576131aa615b34565b906000526020600020906005020160040154145b80156131ff5750858482815481106131d8576131d8615b34565b600091825260209091206005909102015460ff1660038111156131fd576131fd615b4a565b145b1561325c5784600381111561321657613216615b4a565b84828154811061322857613228615b34565b60009182526020909120600590910201805460ff1916600183600381111561325257613252615b4a565b021790555061326e565b8061326681615bb1565b91505061314c565b5050805460005b8181101561339557886001600160a01b031683828154811061329957613299615b34565b60009182526020909120600160059092020101546001600160a01b03161480156132e55750868382815481106132d1576132d1615b34565b906000526020600020906005020160040154145b80156133265750858382815481106132ff576132ff615b34565b600091825260209091206005909102015460ff16600381111561332457613324615b4a565b145b156133835784600381111561333d5761333d615b4a565b83828154811061334f5761334f615b34565b60009182526020909120600590910201805460ff1916600183600381111561337957613379615b4a565b0217905550613395565b8061338d81615bb1565b915050613275565b50886001600160a01b03167f3b040bd431a9bac5915ce547bf7e5704e328a0ba47a7e28f930fbf157beb51318989878a6040516133d59493929190615be8565b60405180910390a2505050505050505050565b6133f133615041565b33600090815260208190526040902060040180546134f4919061341390615b60565b80601f016020809104026020016040519081016040528092919081815260200182805461343f90615b60565b801561348c5780601f106134615761010080835404028352916020019161348c565b820191906000526020600020905b81548152906001019060200180831161346f57829003601f168201915b505060408051808201909152600681527f50696e616b69000000000000000000000000000000000000000000000000000060209182015284519401939093207f1ffcf574a591ef0e2170ea56b4fa9d359a306e644399b60337fda828d34b4e1b149392505050565b6135305760405162461bcd60e51b815260206004820152600d60248201526c1058dd1a5bdb8811195b9a5959609a1b604482015260640161088d565b33600090815260208181526040909120825161355492600490920191840190615162565b5050565b6001600160a01b038116600090815260066020526040812054606091829182919067ffffffffffffffff81111561359157613591615454565b6040519080825280602002602001820160405280156135ba578160200160208202803683370190505b506001600160a01b0386166000908152600660205260408120549192509067ffffffffffffffff8111156135f0576135f0615454565b60405190808252806020026020018201604052801561362357816020015b606081526020019060019003908161360e5790505b506001600160a01b0387166000908152600660205260408120549192509067ffffffffffffffff81111561365957613659615454565b604051908082528060200260200182016040528015613682578160200160208202803683370190505b5090506000805b6001600160a01b038916600090815260066020526040902054811015610822576001600160a01b03891660009081526006602052604090208054829081106136d3576136d3615b34565b600091825260209091206005909102015460ff1660038111156136f8576136f8615b4a565b60ff16600214156138c9576001600160a01b038916600090815260066020526040902080548290811061372d5761372d615b34565b906000526020600020906005020160000160019054906101000a90046001600160a01b031685838151811061376457613764615b34565b6001600160a01b03928316602091820292909201810191909152908a1660009081526006909152604090208054829081106137a1576137a1615b34565b906000526020600020906005020160030180546137bd90615b60565b80601f01602080910402602001604051908101604052809291908181526020018280546137e990615b60565b80156138365780601f1061380b57610100808354040283529160200191613836565b820191906000526020600020905b81548152906001019060200180831161381957829003601f168201915b505050505084838151811061384d5761384d615b34565b6020026020010181905250600660008a6001600160a01b03166001600160a01b03168152602001908152602001600020818154811061388e5761388e615b34565b9060005260206000209060050201600401548383815181106138b2576138b2615b34565b60209081029190910101526138c682615bb1565b91505b806138d381615bb1565b915050613689565b6001600160a01b038181166000908152602081905260409020600301546060918291829182911661393e5760405162461bcd60e51b815260206004820152600d60248201526c24b73b30b634b21020b236b4b760991b604482015260640161088d565b6001600160a01b03851660009081526020819052604081208054909190829061396690615b60565b80601f016020809104026020016040519081016040528092919081815260200182805461399290615b60565b80156139df5780601f106139b4576101008083540402835291602001916139df565b820191906000526020600020905b8154815290600101906020018083116139c257829003601f168201915b5050505050905060008260010180546139f790615b60565b80601f0160208091040260200160405190810160405280929190818152602001828054613a2390615b60565b8015613a705780601f10613a4557610100808354040283529160200191613a70565b820191906000526020600020905b815481529060010190602001808311613a5357829003601f168201915b505050505090506000836002018054613a8890615b60565b80601f0160208091040260200160405190810160405280929190818152602001828054613ab490615b60565b8015613b015780601f10613ad657610100808354040283529160200191613b01565b820191906000526020600020905b815481529060010190602001808311613ae457829003601f168201915b505050505090506000846004018054613b1990615b60565b80601f0160208091040260200160405190810160405280929190818152602001828054613b4590615b60565b8015613b925780601f10613b6757610100808354040283529160200191613b92565b820191906000526020600020905b815481529060010190602001808311613b7557829003601f168201915b50979e969d50949b5091995093975050505050505050565b6001600160a01b038116600090815260076020526040812054606091829182919067ffffffffffffffff811115613be357613be3615454565b604051908082528060200260200182016040528015613c0c578160200160208202803683370190505b506001600160a01b0386166000908152600760205260408120549192509067ffffffffffffffff811115613c4257613c42615454565b604051908082528060200260200182016040528015613c7557816020015b6060815260200190600190039081613c605790505b506001600160a01b0387166000908152600760205260408120549192509067ffffffffffffffff811115613cab57613cab615454565b604051908082528060200260200182016040528015613cd4578160200160208202803683370190505b5090506000805b6001600160a01b038916600090815260076020526040902054811015610822576001600160a01b0389166000908152600760205260409020805482908110613d2557613d25615b34565b600091825260209091206005909102015460ff166003811115613d4a57613d4a615b4a565b60ff16613f17576001600160a01b0389166000908152600760205260409020805482908110613d7b57613d7b615b34565b906000526020600020906005020160010160009054906101000a90046001600160a01b0316858381518110613db257613db2615b34565b6001600160a01b03928316602091820292909201810191909152908a166000908152600790915260409020805482908110613def57613def615b34565b90600052602060002090600502016003018054613e0b90615b60565b80601f0160208091040260200160405190810160405280929190818152602001828054613e3790615b60565b8015613e845780601f10613e5957610100808354040283529160200191613e84565b820191906000526020600020905b815481529060010190602001808311613e6757829003601f168201915b5050505050848381518110613e9b57613e9b615b34565b6020026020010181905250600760008a6001600160a01b03166001600160a01b031681526020019081526020016000208181548110613edc57613edc615b34565b906000526020600020906005020160040154838381518110613f0057613f00615b34565b6020908102919091010152613f1482615bb1565b91505b80613f2181615bb1565b915050613cdb565b6001600160a01b03818116600090815260056020526040902060020154606091829116613f985760405162461bcd60e51b815260206004820152601160248201527f496e76616c696420526571756573746f72000000000000000000000000000000604482015260640161088d565b6001600160a01b038316600090815260056020526040812080549091908290613fc090615b60565b80601f0160208091040260200160405190810160405280929190818152602001828054613fec90615b60565b80156140395780601f1061400e57610100808354040283529160200191614039565b820191906000526020600020905b81548152906001019060200180831161401c57829003601f168201915b50505050509050600082600101805461405190615b60565b80601f016020809104026020016040519081016040528092919081815260200182805461407d90615b60565b80156140ca5780601f1061409f576101008083540402835291602001916140ca565b820191906000526020600020905b8154815290600101906020018083116140ad57829003601f168201915b50959a93995092975050505050505050565b6001600160a01b0381166000908152600360205260408120541561410257506001919050565b506000919050565b6001600160a01b03818116600090815260026020526040902060030154606091829182911661416a5760405162461bcd60e51b815260206004820152600c60248201526b24b73b30b634b2102ab9b2b960a11b604482015260640161088d565b6001600160a01b03841660009081526002602052604081208054909190829061419290615b60565b80601f01602080910402602001604051908101604052809291908181526020018280546141be90615b60565b801561420b5780601f106141e05761010080835404028352916020019161420b565b820191906000526020600020905b8154815290600101906020018083116141ee57829003601f168201915b50505050509050600082600101805461422390615b60565b80601f016020809104026020016040519081016040528092919081815260200182805461424f90615b60565b801561429c5780601f106142715761010080835404028352916020019161429c565b820191906000526020600020905b81548152906001019060200180831161427f57829003601f168201915b5050505050905060008360020180546142b490615b60565b80601f01602080910402602001604051908101604052809291908181526020018280546142e090615b60565b801561432d5780601f106143025761010080835404028352916020019161432d565b820191906000526020600020905b81548152906001019060200180831161431057829003601f168201915b50969c959b5092995093975050505050505050565b61434b81614e5b565b61435481614ebe565b61435d81614f1e565b61436681614f89565b6040805160808101825285815260208082018690528183018590526001600160a01b038416606083018190526000908152600282529290922081518051929384936143b49284920190615162565b5060208281015180516143cd9260018501920190615162565b50604082015180516143e9916002840191602090910190615162565b5060609190910151600390910180546001600160a01b039283166001600160a01b031991821617909155600b80546001810182556000919091527f0175b7a638427703f0dbe7bb9bbf987a2551717b34e79f33b5b1008d1fa01db90180549490921693169290921790915550505050565b6001600160a01b038116600090815260066020526040812054606091829182919067ffffffffffffffff81111561449357614493615454565b6040519080825280602002602001820160405280156144bc578160200160208202803683370190505b506001600160a01b0386166000908152600660205260408120549192509067ffffffffffffffff8111156144f2576144f2615454565b60405190808252806020026020018201604052801561452557816020015b60608152602001906001900390816145105790505b506001600160a01b0387166000908152600660205260408120549192509067ffffffffffffffff81111561455b5761455b615454565b604051908082528060200260200182016040528015614584578160200160208202803683370190505b5090506000805b6001600160a01b038916600090815260066020526040902054811015610822576001600160a01b03891660009081526006602052604090208054829081106145d5576145d5615b34565b600091825260209091206005909102015460ff1660038111156145fa576145fa615b4a565b60ff16600314156147cb576001600160a01b038916600090815260066020526040902080548290811061462f5761462f615b34565b906000526020600020906005020160000160019054906101000a90046001600160a01b031685838151811061466657614666615b34565b6001600160a01b03928316602091820292909201810191909152908a1660009081526006909152604090208054829081106146a3576146a3615b34565b906000526020600020906005020160030180546146bf90615b60565b80601f01602080910402602001604051908101604052809291908181526020018280546146eb90615b60565b80156147385780601f1061470d57610100808354040283529160200191614738565b820191906000526020600020905b81548152906001019060200180831161471b57829003601f168201915b505050505084838151811061474f5761474f615b34565b6020026020010181905250600660008a6001600160a01b03166001600160a01b03168152602001908152602001600020818154811061479057614790615b34565b9060005260206000209060050201600401548383815181106147b4576147b4615b34565b60209081029190910101526147c882615bb1565b91505b806147d581615bb1565b91505061458b565b6147e561510a565b6147ee83614ebe565b6147f783614f1e565b61480083614e5b565b61480983614f89565b6040805160a08101825286815260208082018790526001600160a01b038616828401819052606083018690526080830185905260009081526001825292909220815180519293849361485e9284920190615162565b5060208281015180516148779260018501920190615162565b5060408201516002820180546001600160a01b0319166001600160a01b03909216919091179055606082015180516148b9916003840191602090910190615162565b50608082015180516148d5916004840191602090910190615220565b5050600a80546001810182556000919091527fc65a7bb8d6351c1cf70c95a316cc6a92839c986682d98bc35f958f4883f9d2a80180546001600160a01b0319166001600160a01b039690961695909517909455505050505050565b61493861510a565b61494182614f1e565b61494a82614ebe565b61495382614e5b565b61495c82614f89565b6040805160a08101825286815260208082018790528183018690526001600160a01b038516606083018190526080830185905260009081528082529290922081518051929384936149b09284920190615162565b5060208281015180516149c99260018501920190615162565b50604082015180516149e5916002840191602090910190615162565b5060608201516003820180546001600160a01b0319166001600160a01b0390921691909117905560808201518051614a27916004840191602090910190615162565b5050600980546001810182556000919091527f6e1540171b6c0c960b71a7020d9f60077f6af931a8bbf590da0223dacf75c7af0180546001600160a01b0319166001600160a01b039590951694909417909355505050505050565b6001600160a01b038116600090815260066020526040812054606091829182919067ffffffffffffffff811115614abb57614abb615454565b604051908082528060200260200182016040528015614ae4578160200160208202803683370190505b506001600160a01b0386166000908152600660205260408120549192509067ffffffffffffffff811115614b1a57614b1a615454565b604051908082528060200260200182016040528015614b4d57816020015b6060815260200190600190039081614b385790505b506001600160a01b0387166000908152600660205260408120549192509067ffffffffffffffff811115614b8357614b83615454565b604051908082528060200260200182016040528015614bac578160200160208202803683370190505b5090506000805b6001600160a01b038916600090815260066020526040902054811015610822576001600160a01b0389166000908152600660205260409020805482908110614bfd57614bfd615b34565b600091825260209091206005909102015460ff166003811115614c2257614c22615b4a565b60ff16614def576001600160a01b0389166000908152600660205260409020805482908110614c5357614c53615b34565b906000526020600020906005020160000160019054906101000a90046001600160a01b0316858381518110614c8a57614c8a615b34565b6001600160a01b03928316602091820292909201810191909152908a166000908152600690915260409020805482908110614cc757614cc7615b34565b90600052602060002090600502016003018054614ce390615b60565b80601f0160208091040260200160405190810160405280929190818152602001828054614d0f90615b60565b8015614d5c5780601f10614d3157610100808354040283529160200191614d5c565b820191906000526020600020905b815481529060010190602001808311614d3f57829003601f168201915b5050505050848381518110614d7357614d73615b34565b6020026020010181905250600660008a6001600160a01b03166001600160a01b031681526020019081526020016000208181548110614db457614db4615b34565b906000526020600020906005020160040154838381518110614dd857614dd8615b34565b6020908102919091010152614dec82615bb1565b91505b80614df981615bb1565b915050614bb3565b336000908152600160205260409020600201546001600160a01b0316614e595760405162461bcd60e51b815260206004820152600d60248201526c1058d8d95cdcc811195b9a5959609a1b604482015260640161088d565b565b6001600160a01b038181166000908152600260205260409020600301541615614ebb5760405162461bcd60e51b8152602060048201526012602482015271105b1c9958591e48149959da5cdd195c995960721b604482015260640161088d565b50565b6001600160a01b038181166000908152600160205260409020600201541615614ebb5760405162461bcd60e51b8152602060048201526012602482015271105b1c9958591e48149959da5cdd195c995960721b604482015260640161088d565b6001600160a01b038181166000908152602081905260409020600301541615614ebb5760405162461bcd60e51b815260206004820152601260248201527f5573657220416c72656164792041646d696e0000000000000000000000000000604482015260640161088d565b6001600160a01b038181166000908152600560205260409020600201541615614ebb5760405162461bcd60e51b8152602060048201526012602482015271105b1c9958591e48149959da5cdd195c995960721b604482015260640161088d565b336000908152600560205260409020600201546001600160a01b0316614e595760405162461bcd60e51b815260206004820152600d60248201526c1058d8d95cdcc811195b9a5959609a1b604482015260640161088d565b7f00000000000000000000000000000000000000000000000000000000000000006001600160a01b0316816001600160a01b031614614ebb5760405162461bcd60e51b815260206004820152600d60248201526c1058d8d95cdcc811195b9a5959609a1b604482015260640161088d565b336000908152600260205260409020600301546001600160a01b0316614e595760405162461bcd60e51b815260206004820152600d60248201526c1058d8d95cdcc811195b9a5959609a1b604482015260640161088d565b336000908152602081905260409020600301546001600160a01b0316614e595760405162461bcd60e51b815260206004820152600d60248201526c1058d8d95cdcc811195b9a5959609a1b604482015260640161088d565b82805461516e90615b60565b90600052602060002090601f01602090048101928261519057600085556151d6565b82601f106151a957805160ff19168380011785556151d6565b828001600101855582156151d6579182015b828111156151d65782518255916020019190600101906151bb565b506151e2929150615279565b5090565b5080546151f290615b60565b6000825580601f10615202575050565b601f016020900490600052602060002090810190614ebb9190615279565b82805482825590600052602060002090810192821561526d579160200282015b8281111561526d578251805161525d918491602090910190615162565b5091602001919060010190615240565b506151e292915061528e565b5b808211156151e2576000815560010161527a565b808211156151e25760006152a282826151e6565b5060010161528e565b80356001600160a01b03811681146152c257600080fd5b919050565b6000602082840312156152d957600080fd5b6152e2826152ab565b9392505050565b600081518084526020808501945080840160005b838110156153225781516001600160a01b0316875295820195908201906001016152fd565b509495945050505050565b60005b83811015615348578181015183820152602001615330565b83811115615357576000848401525b50505050565b6000815180845261537581602086016020860161532d565b601f01601f19169290920160200192915050565b600082825180855260208086019550808260051b84010181860160005b848110156153d457601f198684030189526153c283835161535d565b988401989250908301906001016153a6565b5090979650505050505050565b600081518084526020808501945080840160005b83811015615322578151875295820195908201906001016153f5565b60608152600061542460608301866152e9565b82810360208401526154368186615389565b9050828103604084015261544a81856153e1565b9695505050505050565b634e487b7160e01b600052604160045260246000fd5b604051601f8201601f1916810167ffffffffffffffff8111828210171561549357615493615454565b604052919050565b600082601f8301126154ac57600080fd5b813567ffffffffffffffff8111156154c6576154c6615454565b6154d9601f8201601f191660200161546a565b8181528460208386010111156154ee57600080fd5b816020850160208301376000918101602001919091529392505050565b60008060006060848603121561552057600080fd5b615529846152ab565b9250602084013567ffffffffffffffff8082111561554657600080fd5b6155528783880161549b565b9350604086013591508082111561556857600080fd5b506155758682870161549b565b9150509250925092565b60008060006060848603121561559457600080fd5b833567ffffffffffffffff808211156155ac57600080fd5b6155b88783880161549b565b945060208601359150808211156155ce57600080fd5b506155db8682870161549b565b9250506155ea604085016152ab565b90509250925092565b6000806040838503121561560657600080fd5b61560f836152ab565b9150602083013567ffffffffffffffff81111561562b57600080fd5b6156378582860161549b565b9150509250929050565b60808152600061565460808301876152e9565b82810360208401526156668187615389565b9050828103604084015261567a8186615389565b9050828103606084015261568e81856153e1565b979650505050505050565b6080815260006156ac6080830187615389565b82810360208401526156be8187615389565b905082810360408401526156d28186615389565b9050828103606084015261568e81856152e9565b6080815260006156f9608083018761535d565b828103602084015261570b818761535d565b9050828103604084015261571f818661535d565b9050828103606084015261568e8185615389565b60008060008060008060c0878903121561574c57600080fd5b615755876152ab565b9550615763602088016152ab565b9450604087013567ffffffffffffffff81111561577f57600080fd5b61578b89828a0161549b565b945050606087013592506080870135915060a087013590509295509295509295565b6000602082840312156157bf57600080fd5b813567ffffffffffffffff8111156157d657600080fd5b6157e28482850161549b565b949350505050565b6080815260006157fd608083018761535d565b828103602084015261580f818761535d565b90508281036040840152615823818661535d565b9050828103606084015261568e818561535d565b60408152600061584a604083018561535d565b828103602084015261585c818561535d565b95945050505050565b606081526000615878606083018661535d565b828103602084015261588a818661535d565b9050828103604084015261544a818561535d565b600080600080608085870312156158b457600080fd5b843567ffffffffffffffff808211156158cc57600080fd5b6158d88883890161549b565b955060208701359150808211156158ee57600080fd5b6158fa8883890161549b565b9450604087013591508082111561591057600080fd5b5061591d8782880161549b565b92505061592c606086016152ab565b905092959194509250565b600080600080600060a0868803121561594f57600080fd5b853567ffffffffffffffff8082111561596757600080fd5b61597389838a0161549b565b965060209150818801358181111561598a57600080fd5b6159968a828b0161549b565b9650506159a5604089016152ab565b94506060880135818111156159b957600080fd5b6159c58a828b0161549b565b9450506080880135818111156159da57600080fd5b8801601f81018a136159eb57600080fd5b8035828111156159fd576159fd615454565b8060051b615a0c85820161546a565b918252828101850191858101908d841115615a2657600080fd5b86850192505b83831015615a6257823586811115615a445760008081fd5b615a528f898389010161549b565b8352509186019190860190615a2c565b809750505050505050509295509295909350565b600080600080600060a08688031215615a8e57600080fd5b853567ffffffffffffffff80821115615aa657600080fd5b615ab289838a0161549b565b96506020880135915080821115615ac857600080fd5b615ad489838a0161549b565b95506040880135915080821115615aea57600080fd5b615af689838a0161549b565b9450615b04606089016152ab565b93506080880135915080821115615b1a57600080fd5b50615b278882890161549b565b9150509295509295909350565b634e487b7160e01b600052603260045260246000fd5b634e487b7160e01b600052602160045260246000fd5b600181811c90821680615b7457607f821691505b60208210811415615b9557634e487b7160e01b600052602260045260246000fd5b50919050565b634e487b7160e01b600052601160045260246000fd5b6000600019821415615bc557615bc5615b9b565b5060010190565b60008251615bde81846020870161532d565b9190910192915050565b6001600160a01b0385168152608060208201526000615c0a608083018661535d565b6040830194909452506060015292915050565b600082821015615c2f57615c2f615b9b565b500390565b634e487b7160e01b600052603160045260246000fdfea26469706673582212207af22a4602f7efd1b293a325f527afc9038811bcf8631aaf923e4f2554a228f264736f6c634300080a0033",
  "immutableReferences": {
    "3": [
      {
        "length": 32,
        "start": 928
      },
      {
        "length": 32,
        "start": 6590
      },
      {
        "length": 32,
        "start": 20547
      }
    ]
  },
  "source": "// SPDX-License-Identifier: MIT\r\npragma solidity ^0.8.10;\r\n\r\ncontract DigiBlock {\r\n    // global variables\r\n    address public immutable owner;\r\n\r\n    // constructor\r\n    constructor() {\r\n        owner = msg.sender;\r\n        Admin memory ownerAdmin = Admin(\r\n            \"Pinaki\",\r\n            \"Bhattacharjee\",\r\n            \"pinakipb2@gmail.com\",\r\n            msg.sender,\r\n            \"Pinaki\"\r\n        );\r\n        registeredAdmins[msg.sender] = ownerAdmin;\r\n        registeredAdminsAddresses.push(msg.sender);\r\n    }\r\n\r\n    // Function to comapre two strings\r\n    function compareStrings(string memory a, string memory b)\r\n        internal\r\n        pure\r\n        returns (bool)\r\n    {\r\n        return (keccak256(bytes(a)) == keccak256(bytes(b)));\r\n    }\r\n\r\n    // Admin structure\r\n    struct Admin {\r\n        string firstName;\r\n        string lastName;\r\n        string email;\r\n        address userAddress;\r\n        string masterKey;\r\n    }\r\n\r\n    // Document structure\r\n    struct Document {\r\n        address from;\r\n        address to;\r\n        string ipfsHash;\r\n        string docType;\r\n        uint256 timestamp;\r\n    }\r\n\r\n    // User structure\r\n    struct User {\r\n        string firstName;\r\n        string lastName;\r\n        string email;\r\n        address userAddress;\r\n    }\r\n\r\n    // Issuer structure\r\n    struct Issuer {\r\n        string orgName;\r\n        string email;\r\n        address orgAddress;\r\n        string masterKey;\r\n        string[] docTypes;\r\n    }\r\n\r\n    // Requestor structure\r\n    struct Requestor {\r\n        string orgName;\r\n        string email;\r\n        address orgAddress;\r\n    }\r\n\r\n    // Request a document structure\r\n    struct RequestedDocument {\r\n        docAccessStatus status;\r\n        address from;\r\n        address to;\r\n        string ipfsHash;\r\n        string docType;\r\n        uint256 timestamp;\r\n    }\r\n\r\n    // enums\r\n    enum docAccessStatus {\r\n        PENDING,\r\n        ACCEPTED,\r\n        REJECTED,\r\n        REVOKED\r\n    }\r\n\r\n    // mappings\r\n    mapping(address => Admin) registeredAdmins;\r\n    mapping(address => Issuer) registeredIssuers;\r\n    mapping(address => User) registeredUsers;\r\n    mapping(address => Document[]) issuedDocuments;\r\n    mapping(address => Document[]) issuedDocsByIssuer;\r\n    mapping(address => Requestor) registeredRequestors;\r\n    mapping(address => RequestedDocument[]) requestedDocuments;\r\n    mapping(address => RequestedDocument[]) requestedDocsByRequestor;\r\n    mapping(string => bool) IPFShash;\r\n\r\n    // arrays\r\n    address[] registeredAdminsAddresses;\r\n    address[] registeredIssuersAddresses;\r\n    address[] registeredUsersAddresses;\r\n    address[] registeredRequestorsAddresses;\r\n\r\n    // count variables\r\n    // uint256 totalIssuedDocuments;\r\n    // uint256 totalRequestedDocuments;\r\n\r\n    // uint256 totalRequestedPendingDocuments;\r\n    // uint256 totalRequestedAcceptedDocuments;\r\n    // uint256 totalRequestedRejectedDocuments;\r\n    // uint256 totalRequestedRevokedDocuments;\r\n\r\n    // modifier functions\r\n    // Owner Only Action\r\n    function onlyOwner(address _owner) internal view {\r\n        require(_owner == owner, \"Access Denied\");\r\n    }\r\n\r\n    // Admin Only Action\r\n    function onlyAdmin() internal view {\r\n        require(\r\n            registeredAdmins[msg.sender].userAddress != address(0),\r\n            \"Access Denied\"\r\n        ); // Not Registered as Admin\r\n    }\r\n\r\n    // Pass: User is not Admin\r\n    function alreadyRegisteredAdmin(address _userAddress) internal view {\r\n        if (registeredAdmins[_userAddress].userAddress != address(0)) {\r\n            revert(\"User Already Admin\");\r\n        }\r\n    }\r\n\r\n    // Issuers\r\n    // Issuer Only Action\r\n    function onlyIssuer() internal view {\r\n        require(\r\n            registeredIssuers[msg.sender].orgAddress != address(0),\r\n            \"Access Denied\"\r\n        ); // Not Registered as Issuer\r\n    }\r\n\r\n    // Pass: User is not Issuer\r\n    function alreadyRegisteredIssuer(address _orgAddress) internal view {\r\n        if (registeredIssuers[_orgAddress].orgAddress != address(0)) {\r\n            revert(\"Already Registered\");\r\n        }\r\n    }\r\n\r\n    // Users\r\n    // User Only Action\r\n    function onlyUser() internal view {\r\n        require(\r\n            registeredUsers[msg.sender].userAddress != address(0),\r\n            \"Access Denied\"\r\n        ); // Not Registered as User\r\n    }\r\n\r\n    // Pass: User is not User\r\n    function alreadyRegisteredUser(address _userAddress) internal view {\r\n        if (registeredUsers[_userAddress].userAddress != address(0)) {\r\n            revert(\"Already Registered\");\r\n        }\r\n    }\r\n\r\n    // Requestor\r\n    // Requestor Only Action\r\n    function onlyRequestor() internal view {\r\n        require(\r\n            registeredRequestors[msg.sender].orgAddress != address(0),\r\n            \"Access Denied\"\r\n        ); // Not Registered as Requestor\r\n    }\r\n\r\n    // Pass: User is not Requestor\r\n    function alreadyRegisteredRequestor(address _orgAddress) internal view {\r\n        if (registeredRequestors[_orgAddress].orgAddress != address(0)) {\r\n            revert(\"Already Registered\");\r\n        }\r\n    }\r\n\r\n    event DocumentStatusChange(\r\n        address indexed _from,\r\n        address _to,\r\n        string _docType,\r\n        uint256 _status,\r\n        uint256 _timestamp\r\n    );\r\n\r\n    // functions\r\n    // Add an Admin\r\n    function addAdmin(\r\n        string memory _firstName,\r\n        string memory _lastName,\r\n        string memory _email,\r\n        address _userAddress,\r\n        string memory _masterKey\r\n    ) external {\r\n        onlyAdmin();\r\n        alreadyRegisteredAdmin(_userAddress);\r\n        alreadyRegisteredIssuer(_userAddress);\r\n        alreadyRegisteredUser(_userAddress);\r\n        alreadyRegisteredRequestor(_userAddress);\r\n        Admin memory newAdmin = Admin(\r\n            _firstName,\r\n            _lastName,\r\n            _email,\r\n            _userAddress,\r\n            _masterKey\r\n        );\r\n        registeredAdmins[_userAddress] = newAdmin;\r\n        registeredAdminsAddresses.push(_userAddress);\r\n    }\r\n\r\n    // Delete an Admin\r\n    function deleteAdmin(address _userAddress) external {\r\n        onlyOwner(msg.sender);\r\n        require(_userAddress != owner, \"Access Denied\");\r\n        require(\r\n            registeredAdmins[_userAddress].userAddress != address(0),\r\n            \"Invalid Admin\"\r\n        );\r\n        delete registeredAdmins[_userAddress];\r\n        uint256 index = 0;\r\n        while (registeredAdminsAddresses[index] != _userAddress) {\r\n            index++;\r\n        }\r\n        require(index < registeredAdminsAddresses.length, \"Failed\");\r\n        registeredAdminsAddresses[index] = registeredAdminsAddresses[\r\n            registeredAdminsAddresses.length - 1\r\n        ];\r\n        registeredAdminsAddresses.pop();\r\n    }\r\n\r\n    // Get all Admins\r\n    function allAdmins()\r\n        external\r\n        view\r\n        returns (\r\n            string[] memory,\r\n            string[] memory,\r\n            string[] memory,\r\n            address[] memory\r\n        )\r\n    {\r\n        uint256 adminCount = registeredAdminsAddresses.length;\r\n        string[] memory _firstName = new string[](adminCount);\r\n        string[] memory _lastName = new string[](adminCount);\r\n        string[] memory _email = new string[](adminCount);\r\n        address[] memory _userAddress = new address[](adminCount);\r\n        for (uint256 i = 0; i < adminCount; i++) {\r\n            Admin storage currentAdmin = registeredAdmins[\r\n                registeredAdminsAddresses[i]\r\n            ];\r\n            _firstName[i] = currentAdmin.firstName;\r\n            _lastName[i] = currentAdmin.lastName;\r\n            _email[i] = currentAdmin.email;\r\n            _userAddress[i] = currentAdmin.userAddress;\r\n        }\r\n        return (_firstName, _lastName, _email, _userAddress);\r\n    }\r\n\r\n    // Get a single Admin by address\r\n    function singleAdmin(address _userAddress)\r\n        external\r\n        view\r\n        returns (\r\n            string memory,\r\n            string memory,\r\n            string memory,\r\n            string memory\r\n        )\r\n    {\r\n        require(\r\n            registeredAdmins[_userAddress].userAddress != address(0),\r\n            \"Invalid Admin\"\r\n        );\r\n        Admin storage currentAdmin = registeredAdmins[_userAddress];\r\n        string memory _firstName = currentAdmin.firstName;\r\n        string memory _lastName = currentAdmin.lastName;\r\n        string memory _email = currentAdmin.email;\r\n        string memory _masterKey = currentAdmin.masterKey;\r\n        return (_firstName, _lastName, _email, _masterKey);\r\n    }\r\n\r\n    // Update Master Key of Owner on CONTRACT DEPLOYMENT\r\n    function updateMasterKey(string memory _masterKey) external {\r\n        onlyOwner(msg.sender);\r\n        require(\r\n            compareStrings(registeredAdmins[msg.sender].masterKey, \"Pinaki\"),\r\n            \"Action Denied\"\r\n        );\r\n        registeredAdmins[msg.sender].masterKey = _masterKey;\r\n    }\r\n\r\n    // Get the count of Admins\r\n    function adminsCount() external view returns (uint256) {\r\n        return registeredAdminsAddresses.length;\r\n    }\r\n\r\n    // Add a new Issuer (Admin Only action)\r\n    function addIssuer(\r\n        string memory _orgName,\r\n        string memory _email,\r\n        address _orgAddress,\r\n        string memory _masterKey,\r\n        string[] memory _docTypes\r\n    ) external {\r\n        onlyAdmin();\r\n        alreadyRegisteredIssuer(_orgAddress);\r\n        alreadyRegisteredAdmin(_orgAddress);\r\n        alreadyRegisteredUser(_orgAddress);\r\n        alreadyRegisteredRequestor(_orgAddress);\r\n        Issuer memory newIssuer = Issuer(\r\n            _orgName,\r\n            _email,\r\n            _orgAddress,\r\n            _masterKey,\r\n            _docTypes\r\n        );\r\n        registeredIssuers[_orgAddress] = newIssuer;\r\n        registeredIssuersAddresses.push(_orgAddress);\r\n    }\r\n\r\n    // Get a single Issuer by address\r\n    function singleIssuer(address _orgAddress)\r\n        external\r\n        view\r\n        returns (\r\n            string memory,\r\n            string memory,\r\n            string memory,\r\n            string[] memory\r\n        )\r\n    {\r\n        require(\r\n            registeredIssuers[_orgAddress].orgAddress != address(0),\r\n            \"Invalid Issuer\"\r\n        );\r\n        Issuer storage currentIssuer = registeredIssuers[_orgAddress];\r\n        string memory _orgName = currentIssuer.orgName;\r\n        string memory _email = currentIssuer.email;\r\n        string memory _masterKey = currentIssuer.masterKey;\r\n        string[] memory _docTypes = currentIssuer.docTypes;\r\n        return (_orgName, _email, _masterKey, _docTypes);\r\n    }\r\n\r\n    // Get the count of Issuers\r\n    function issuersCount() external view returns (uint256) {\r\n        return registeredIssuersAddresses.length;\r\n    }\r\n\r\n    // Add a new User\r\n    function addUser(\r\n        string memory _firstName,\r\n        string memory _lastName,\r\n        string memory _email,\r\n        address _userAddress\r\n    ) external {\r\n        alreadyRegisteredUser(_userAddress);\r\n        alreadyRegisteredIssuer(_userAddress);\r\n        alreadyRegisteredAdmin(_userAddress);\r\n        alreadyRegisteredRequestor(_userAddress);\r\n        User memory newUser = User(_firstName, _lastName, _email, _userAddress);\r\n        registeredUsers[_userAddress] = newUser;\r\n        registeredUsersAddresses.push(_userAddress);\r\n    }\r\n\r\n    // Get a single User by address\r\n    function singleUser(address _userAddress)\r\n        external\r\n        view\r\n        returns (\r\n            string memory,\r\n            string memory,\r\n            string memory\r\n        )\r\n    {\r\n        require(\r\n            registeredUsers[_userAddress].userAddress != address(0),\r\n            \"Invalid User\"\r\n        );\r\n        User storage currentUser = registeredUsers[_userAddress];\r\n        string memory _firstName = currentUser.firstName;\r\n        string memory _lastName = currentUser.lastName;\r\n        string memory _email = currentUser.email;\r\n        return (_firstName, _lastName, _email);\r\n    }\r\n\r\n    // Get the count of Users\r\n    function usersCount() external view returns (uint256) {\r\n        return registeredUsersAddresses.length;\r\n    }\r\n\r\n    // Issue a document to User\r\n    function issueDocument(\r\n        address _to,\r\n        string memory _ipfsHash,\r\n        string memory _docType\r\n    ) external {\r\n        onlyIssuer();\r\n        // _to must be a User\r\n        require(registeredUsers[_to].userAddress != address(0), \"Invalid User\");\r\n        if (IPFShash[_ipfsHash]) revert(\"Access Denied\");\r\n        IPFShash[_ipfsHash] = true;\r\n        // _to must not be issued this docType before\r\n        uint256 userIssuedDocsCount = issuedDocuments[_to].length;\r\n        for (uint256 i = 0; i < userIssuedDocsCount; i++) {\r\n            if (compareStrings(issuedDocuments[_to][i].docType, _docType)) {\r\n                revert(\"Access Denied\");\r\n            }\r\n        }\r\n        Document memory newDocument = Document(\r\n            msg.sender,\r\n            _to,\r\n            _ipfsHash,\r\n            _docType,\r\n            block.timestamp\r\n        );\r\n        issuedDocuments[_to].push(newDocument);\r\n        issuedDocsByIssuer[msg.sender].push(newDocument);\r\n        // ++totalIssuedDocuments;\r\n    }\r\n\r\n    // Issued documents by a Issuer\r\n    function getDocsIssuedByIssuer(address _orgAddress)\r\n        external\r\n        view\r\n        returns (\r\n            address[] memory,\r\n            string[] memory,\r\n            string[] memory,\r\n            uint256[] memory\r\n        )\r\n    {\r\n        // onlyIssuer();\r\n        uint256 docsIssued = issuedDocsByIssuer[_orgAddress].length;\r\n        address[] memory _to = new address[](docsIssued);\r\n        string[] memory _ipfsHash = new string[](docsIssued);\r\n        string[] memory _docType = new string[](docsIssued);\r\n        uint256[] memory _timeStamp = new uint256[](docsIssued);\r\n        for (uint256 i = 0; i < docsIssued; i++) {\r\n            Document storage currentDoc = issuedDocsByIssuer[_orgAddress][i];\r\n            _to[i] = currentDoc.to;\r\n            _ipfsHash[i] = currentDoc.ipfsHash;\r\n            _docType[i] = currentDoc.docType;\r\n            _timeStamp[i] = currentDoc.timestamp;\r\n        }\r\n        return (_to, _ipfsHash, _docType, _timeStamp);\r\n    }\r\n\r\n    // Is User Verified (pass : if one or more docs issued)\r\n    function isUserVerified(address _userAddress) external view returns (bool) {\r\n        if (issuedDocuments[_userAddress].length > 0) return true;\r\n        return false;\r\n    }\r\n\r\n    // get all Documents issued to a User\r\n    function getAllDocuments(address _userAddress)\r\n        external\r\n        view\r\n        returns (\r\n            address[] memory,\r\n            string[] memory,\r\n            string[] memory,\r\n            uint256[] memory\r\n        )\r\n    {\r\n        uint256 issuedDocs = issuedDocuments[_userAddress].length;\r\n        address[] memory _from = new address[](issuedDocs);\r\n        string[] memory _ipfsHash = new string[](issuedDocs);\r\n        string[] memory _docType = new string[](issuedDocs);\r\n        uint256[] memory _timeStamp = new uint256[](issuedDocs);\r\n        for (uint256 i = 0; i < issuedDocs; i++) {\r\n            Document storage currentDoc = issuedDocuments[_userAddress][i];\r\n            _from[i] = currentDoc.from;\r\n            _ipfsHash[i] = currentDoc.ipfsHash;\r\n            _docType[i] = currentDoc.docType;\r\n            _timeStamp[i] = currentDoc.timestamp;\r\n        }\r\n        return (_from, _ipfsHash, _docType, _timeStamp);\r\n    }\r\n\r\n    // Add a new Requestor\r\n    function addRequestor(\r\n        string memory _orgName,\r\n        string memory _email,\r\n        address _orgAddress\r\n    ) external {\r\n        alreadyRegisteredUser(_orgAddress);\r\n        alreadyRegisteredIssuer(_orgAddress);\r\n        alreadyRegisteredAdmin(_orgAddress);\r\n        alreadyRegisteredRequestor(_orgAddress);\r\n        Requestor memory newRequestor = Requestor(\r\n            _orgName,\r\n            _email,\r\n            _orgAddress\r\n        );\r\n        registeredRequestors[_orgAddress] = newRequestor;\r\n        registeredRequestorsAddresses.push(_orgAddress);\r\n    }\r\n\r\n    // Get a single Requestor by address\r\n    function singleRequestor(address _orgAddress)\r\n        external\r\n        view\r\n        returns (string memory, string memory)\r\n    {\r\n        require(\r\n            registeredRequestors[_orgAddress].orgAddress != address(0),\r\n            \"Invalid Requestor\"\r\n        );\r\n        Requestor storage currentRequestor = registeredRequestors[_orgAddress];\r\n        string memory _orgName = currentRequestor.orgName;\r\n        string memory _email = currentRequestor.email;\r\n        return (_orgName, _email);\r\n    }\r\n\r\n    // Get the count of Requestors\r\n    function requestorsCount() external view returns (uint256) {\r\n        return registeredRequestorsAddresses.length;\r\n    }\r\n\r\n    // Requestor request document by User then by docType\r\n    function requestDocumentFromUser(\r\n        address _userAddress,\r\n        string memory _docType\r\n    ) external {\r\n        onlyRequestor();\r\n        require(\r\n            registeredUsers[_userAddress].userAddress != address(0),\r\n            \"Invalid User\"\r\n        );\r\n        uint256 userIssuedDocsCount = issuedDocuments[_userAddress].length;\r\n        bool isDoc = false;\r\n        Document memory currentDoc;\r\n        for (uint256 i = 0; i < userIssuedDocsCount; i++) {\r\n            if (\r\n                compareStrings(\r\n                    issuedDocuments[_userAddress][i].docType,\r\n                    _docType\r\n                )\r\n            ) {\r\n                currentDoc = issuedDocuments[_userAddress][i];\r\n                isDoc = true;\r\n                break;\r\n            }\r\n        }\r\n        if (!isDoc) revert(\"Doc not Found\");\r\n        RequestedDocument memory newRequestedDoc = RequestedDocument(\r\n            docAccessStatus(0),\r\n            msg.sender,\r\n            _userAddress,\r\n            currentDoc.ipfsHash,\r\n            currentDoc.docType,\r\n            block.timestamp\r\n        );\r\n        requestedDocuments[_userAddress].push(newRequestedDoc);\r\n        requestedDocsByRequestor[msg.sender].push(newRequestedDoc);\r\n        // ++totalRequestedDocuments;\r\n        // ++totalRequestedPendingDocuments;\r\n        emit DocumentStatusChange(\r\n            msg.sender,\r\n            _userAddress,\r\n            _docType,\r\n            0,\r\n            block.timestamp\r\n        );\r\n    }\r\n\r\n    // user show all requested pending documents\r\n    function getUserPendingDocuments(address _userAddress)\r\n        external\r\n        view\r\n        returns (\r\n            address[] memory,\r\n            string[] memory,\r\n            uint256[] memory\r\n        )\r\n    {\r\n        address[] memory _from = new address[](requestedDocuments[_userAddress].length);\r\n        string[] memory _docType = new string[](requestedDocuments[_userAddress].length);\r\n        uint256[] memory _timestamp = new uint256[](\r\n            requestedDocuments[_userAddress].length\r\n        );\r\n        uint256 j = 0;\r\n        for (uint256 i = 0; i < requestedDocuments[_userAddress].length; i++) {\r\n            if (uint8(requestedDocuments[_userAddress][i].status) == 0) {\r\n                _from[j] = requestedDocuments[_userAddress][i].from;\r\n                _docType[j] = requestedDocuments[_userAddress][i].docType;\r\n                _timestamp[j] = requestedDocuments[_userAddress][i].timestamp;\r\n                ++j;\r\n            }\r\n        }\r\n        return (_from, _docType, _timestamp);\r\n    }\r\n\r\n    // user show all requested accepted documents\r\n    function getUserAcceptedDocuments(address _userAddress)\r\n        external\r\n        view\r\n        returns (\r\n            address[] memory,\r\n            string[] memory,\r\n            uint256[] memory\r\n        )\r\n    {\r\n        address[] memory _from = new address[](requestedDocuments[_userAddress].length);\r\n        string[] memory _docType = new string[](\r\n            requestedDocuments[_userAddress].length\r\n        );\r\n        uint256[] memory _timestamp = new uint256[](\r\n            requestedDocuments[_userAddress].length\r\n        );\r\n        uint256 j = 0;\r\n        for (uint256 i = 0; i < requestedDocuments[_userAddress].length; i++) {\r\n            if (uint8(requestedDocuments[_userAddress][i].status) == 1) {\r\n                _from[j] = requestedDocuments[_userAddress][i].from;\r\n                _docType[j] = requestedDocuments[_userAddress][i].docType;\r\n                _timestamp[j] = requestedDocuments[_userAddress][i].timestamp;\r\n                ++j;\r\n            }\r\n        }\r\n        return (_from, _docType, _timestamp);\r\n    }\r\n\r\n    // user show all requested rejected documents\r\n    function getUserRejectedDocuments(address _userAddress)\r\n        external\r\n        view\r\n        returns (\r\n            address[] memory,\r\n            string[] memory,\r\n            uint256[] memory\r\n        )\r\n    {\r\n        address[] memory _from = new address[](requestedDocuments[_userAddress].length);\r\n        string[] memory _docType = new string[](\r\n            requestedDocuments[_userAddress].length\r\n        );\r\n        uint256[] memory _timestamp = new uint256[](\r\n            requestedDocuments[_userAddress].length\r\n        );\r\n        uint256 j = 0;\r\n        for (uint256 i = 0; i < requestedDocuments[_userAddress].length; i++) {\r\n            if (uint8(requestedDocuments[_userAddress][i].status) == 2) {\r\n                _from[j] = requestedDocuments[_userAddress][i].from;\r\n                _docType[j] = requestedDocuments[_userAddress][i].docType;\r\n                _timestamp[j] = requestedDocuments[_userAddress][i].timestamp;\r\n                ++j;\r\n            }\r\n        }\r\n        return (_from, _docType, _timestamp);\r\n    }\r\n\r\n    // user show all requested revoked documents\r\n    function getUserRevokedDocuments(address _userAddress)\r\n        external\r\n        view\r\n        returns (\r\n            address[] memory,\r\n            string[] memory,\r\n            uint256[] memory\r\n        )\r\n    {\r\n        address[] memory _from = new address[](requestedDocuments[_userAddress].length);\r\n        string[] memory _docType = new string[](requestedDocuments[_userAddress].length);\r\n        uint256[] memory _timestamp = new uint256[](\r\n            requestedDocuments[_userAddress].length\r\n        );\r\n        uint256 j = 0;\r\n        for (uint256 i = 0; i < requestedDocuments[_userAddress].length; i++) {\r\n            if (uint8(requestedDocuments[_userAddress][i].status) == 3) {\r\n                _from[j] = requestedDocuments[_userAddress][i].from;\r\n                _docType[j] = requestedDocuments[_userAddress][i].docType;\r\n                _timestamp[j] = requestedDocuments[_userAddress][i].timestamp;\r\n                ++j;\r\n            }\r\n        }\r\n        return (_from, _docType, _timestamp);\r\n    }\r\n\r\n    // Requestor show all requested pending documents\r\n    function getRequestorPendingDocuments(address _orgAddress)\r\n        external\r\n        view\r\n        returns (\r\n            address[] memory,\r\n            string[] memory,\r\n            uint256[] memory\r\n        )\r\n    {\r\n        address[] memory _to = new address[](requestedDocsByRequestor[_orgAddress].length);\r\n        string[] memory _docType = new string[](requestedDocsByRequestor[_orgAddress].length);\r\n        uint256[] memory _timestamp = new uint256[](\r\n            requestedDocsByRequestor[_orgAddress].length\r\n        );\r\n        uint256 j = 0;\r\n        for (uint256 i = 0; i < requestedDocsByRequestor[_orgAddress].length; i++) {\r\n            if (uint8(requestedDocsByRequestor[_orgAddress][i].status) == 0) {\r\n                _to[j] = requestedDocsByRequestor[_orgAddress][i].to;\r\n                _docType[j] = requestedDocsByRequestor[_orgAddress][i].docType;\r\n                _timestamp[j] = requestedDocsByRequestor[_orgAddress][i]\r\n                    .timestamp;\r\n                ++j;\r\n            }\r\n        }\r\n        return (_to, _docType, _timestamp);\r\n    }\r\n\r\n    // Requestor show all requested accepted documents\r\n    function getRequestorAcceptedDocuments(address _orgAddress)\r\n        external\r\n        view\r\n        returns (\r\n            address[] memory,\r\n            string[] memory,\r\n            string[] memory,\r\n            uint256[] memory\r\n        )\r\n    {\r\n        address[] memory _to = new address[](requestedDocsByRequestor[_orgAddress].length);\r\n        string[] memory _docType = new string[](\r\n            requestedDocsByRequestor[_orgAddress].length\r\n        );\r\n        string[] memory _ipfsHash = new string[](\r\n            requestedDocsByRequestor[_orgAddress].length\r\n        );\r\n        uint256[] memory _timestamp = new uint256[](\r\n            requestedDocsByRequestor[_orgAddress].length\r\n        );\r\n        uint256 j = 0;\r\n        for (uint256 i = 0; i < requestedDocsByRequestor[_orgAddress].length; i++) {\r\n            if (uint8(requestedDocsByRequestor[_orgAddress][i].status) == 1) {\r\n                _to[j] = requestedDocsByRequestor[_orgAddress][i].to;\r\n                _docType[j] = requestedDocsByRequestor[_orgAddress][i].docType;\r\n                _ipfsHash[j] = requestedDocsByRequestor[_orgAddress][i]\r\n                    .ipfsHash;\r\n                _timestamp[j] = requestedDocsByRequestor[_orgAddress][i]\r\n                    .timestamp;\r\n                ++j;\r\n            }\r\n        }\r\n        return (_to, _docType, _ipfsHash, _timestamp);\r\n    }\r\n\r\n    // Requestor show all requested rejected documents\r\n    function getRequestorRejectedDocuments(address _orgAddress)\r\n        external\r\n        view\r\n        returns (\r\n            address[] memory,\r\n            string[] memory,\r\n            uint256[] memory\r\n        )\r\n    {\r\n        address[] memory _to = new address[](requestedDocsByRequestor[_orgAddress].length);\r\n        string[] memory _docType = new string[](\r\n            requestedDocsByRequestor[_orgAddress].length\r\n        );\r\n        uint256[] memory _timestamp = new uint256[](\r\n            requestedDocsByRequestor[_orgAddress].length\r\n        );\r\n        uint256 j = 0;\r\n        for (uint256 i = 0; i < requestedDocsByRequestor[_orgAddress].length; i++) {\r\n            if (uint8(requestedDocsByRequestor[_orgAddress][i].status) == 2) {\r\n                _to[j] = requestedDocsByRequestor[_orgAddress][i].to;\r\n                _docType[j] = requestedDocsByRequestor[_orgAddress][i].docType;\r\n                _timestamp[j] = requestedDocsByRequestor[_orgAddress][i]\r\n                    .timestamp;\r\n                ++j;\r\n            }\r\n        }\r\n        return (_to, _docType, _timestamp);\r\n    }\r\n\r\n    // Requestor show all requested revoked documents\r\n    function getRequestorRevokedDocuments(address _orgAddress)\r\n        external\r\n        view\r\n        returns (\r\n            address[] memory,\r\n            string[] memory,\r\n            uint256[] memory\r\n        )\r\n    {\r\n        address[] memory _to = new address[](requestedDocsByRequestor[_orgAddress].length);\r\n        string[] memory _docType = new string[](requestedDocsByRequestor[_orgAddress].length);\r\n        uint256[] memory _timestamp = new uint256[](\r\n            requestedDocsByRequestor[_orgAddress].length\r\n        );\r\n        uint256 j = 0;\r\n        for (uint256 i = 0; i < requestedDocsByRequestor[_orgAddress].length; i++) {\r\n            if (uint8(requestedDocsByRequestor[_orgAddress][i].status) == 3) {\r\n                _to[j] = requestedDocsByRequestor[_orgAddress][i].to;\r\n                _docType[j] = requestedDocsByRequestor[_orgAddress][i].docType;\r\n                _timestamp[j] = requestedDocsByRequestor[_orgAddress][i]\r\n                    .timestamp;\r\n                ++j;\r\n            }\r\n        }\r\n        return (_to, _docType, _timestamp);\r\n    }\r\n\r\n    // User change status (_from -> requestor)\r\n    function changeDocumentStatus(\r\n        address _from,\r\n        address _to,\r\n        string memory _docType,\r\n        uint256 _timestamp,\r\n        uint256 _prevStatus,\r\n        uint256 _nextStatus\r\n    ) external {\r\n        onlyUser();\r\n        require(registeredUsers[_to].userAddress != address(0), \"Invalid User\");\r\n        require(\r\n            registeredRequestors[_from].orgAddress != address(0),\r\n            \"Invalid Requestor\"\r\n        );\r\n        if (\r\n            (_prevStatus < 0 || _prevStatus > 3) ||\r\n            (_nextStatus < 0 || _nextStatus > 3) ||\r\n            (_prevStatus == _nextStatus)\r\n        ) revert(\"Action Denied\");\r\n        if (_prevStatus == 0 && _nextStatus == 3) revert(\"Action Denied\");\r\n        if (_prevStatus == 1 && _nextStatus != 3) revert(\"Action Denied\");\r\n        if (_prevStatus == 2 || _prevStatus == 3) revert(\"Action Denied\");\r\n        RequestedDocument[] storage requestedToUserDocs = requestedDocuments[\r\n            _to\r\n        ];\r\n        RequestedDocument[]\r\n            storage requestedByRequestorDocs = requestedDocsByRequestor[_from];\r\n        uint256 totalDocs = requestedToUserDocs.length;\r\n        for (uint256 i = 0; i < totalDocs; i++) {\r\n            if (\r\n                requestedToUserDocs[i].from == _from &&\r\n                requestedToUserDocs[i].timestamp == _timestamp &&\r\n                uint256(requestedToUserDocs[i].status) == _prevStatus\r\n            ) {\r\n                // if (uint256(requestedToUserDocs[i].status) == 0)\r\n                //     --totalRequestedPendingDocuments;\r\n                // else if (uint256(requestedToUserDocs[i].status) == 1)\r\n                //     --totalRequestedAcceptedDocuments;\r\n                // if (_nextStatus == 1) ++totalRequestedAcceptedDocuments;\r\n                // else if (_nextStatus == 2) ++totalRequestedRejectedDocuments;\r\n                // else if (_nextStatus == 3) ++totalRequestedRevokedDocuments;\r\n                requestedToUserDocs[i].status = docAccessStatus(_nextStatus);\r\n                break;\r\n            }\r\n        }\r\n        totalDocs = requestedByRequestorDocs.length;\r\n        for (uint256 i = 0; i < totalDocs; i++) {\r\n            if (\r\n                requestedByRequestorDocs[i].to == _to &&\r\n                requestedByRequestorDocs[i].timestamp == _timestamp &&\r\n                uint256(requestedByRequestorDocs[i].status) == _prevStatus\r\n            ) {\r\n                requestedByRequestorDocs[i].status = docAccessStatus(\r\n                    _nextStatus\r\n                );\r\n                break;\r\n            }\r\n        }\r\n        emit DocumentStatusChange(\r\n            _from,\r\n            _to,\r\n            _docType,\r\n            _nextStatus,\r\n            _timestamp\r\n        );\r\n    }\r\n}\r\n",
  "sourcePath": "C:\\Users\\KIIT\\Desktop\\digiblock\\contracts\\DigiBlock.sol",
  "compiler": {
    "name": "solc",
    "version": "0.8.10+commit.fc410830.Emscripten.clang"
  },
  "schemaVersion": "3.4.3",
  "updatedAt": "2022-04-08T08:17:29.421Z",
  "networkType": "ethereum",
  "devdoc": {
    "kind": "dev",
    "methods": {},
    "version": 1
  },
  "userdoc": {
    "kind": "user",
    "methods": {},
    "version": 1
  }
}